{
  "transactions": [
    {
      "hash": "0x61cb786c36d323c4289d724ed6754f321c5c42fe859ff2fca09abf74c07b5fc6",
      "transactionType": "CALL",
      "contractName": null,
      "contractAddress": "0xb99cc53e8db7018f557606c2a5b066527bf96b26",
      "function": "createTask((address,(address,uint32),bytes))",
      "arguments": [
        "(0x0000000000000000000000000000000000000000, (0x70997970C51812dc3A010C7d01b50e0d17dc79C8, 1), 0x0000000000000000000000000000000000000000000000000000000000000032)"
      ],
      "transaction": {
        "from": "0x3c44cdddb6a900fa2b585dd299e03d12fa4293bc",
        "to": "0xb99cc53e8db7018f557606c2a5b066527bf96b26",
        "gas": "0x6d96e",
        "value": "0x0",
        "input": "0x1fb66f5d0000000000000000000000000000000000000000000000000000000000000020000000000000000000000000000000000000000000000000000000000000000000000000000000000000000070997970c51812dc3a010c7d01b50e0d17dc79c80000000000000000000000000000000000000000000000000000000000000001000000000000000000000000000000000000000000000000000000000000008000000000000000000000000000000000000000000000000000000000000000200000000000000000000000000000000000000000000000000000000000000032",
        "nonce": "0x409",
        "chainId": "0x7a6a"
      },
      "additionalContracts": [],
      "isFixedGasLimit": false
    }
  ],
  "receipts": [
    {
      "status": "0x1",
      "cumulativeGasUsed": "0x4f574",
      "logs": [
        {
          "address": "0xb99cc53e8db7018f557606c2a5b066527bf96b26",
          "topics": [
            "0x33add0b01e02278be5459fbfa3274aee699ec47f4ee7236b59e7a2c8b5000c26",
            "0x0000000000000000000000003c44cdddb6a900fa2b585dd299e03d12fa4293bc",
            "0x906878f684133e9aeee2e821f8b9e923c3708fc989e1ea2fd646610c172b995d",
            "0x00000000000000000000000070997970c51812dc3a010c7d01b50e0d17dc79c8"
          ],
          "data": "0x00000000000000000000000000000000000000000000000000000000000000010000000000000000000000000000000000000000000000000000000068d1e005000000000000000000000000000000000000000000000000000000000000000000000000000000000000000000000000000000000000000000000000000000000000000000000000000000000000000000000000000000000000000068d1e40a00000000000000000000000000000000000000000000000000000000000000c000000000000000000000000000000000000000000000000000000000000000200000000000000000000000000000000000000000000000000000000000000032",
          "blockHash": "0x378fc32264cdcdb2643e4c246573eb8e07f81b78b000dd11f72dacbcffeb977c",
          "blockNumber": "0x1df41a2",
          "blockTimestamp": "0x68d1e392",
          "transactionHash": "0x61cb786c36d323c4289d724ed6754f321c5c42fe859ff2fca09abf74c07b5fc6",
          "transactionIndex": "0x0",
          "logIndex": "0x0",
          "removed": false
        }
      ],
      "logsBloom": "0x00000800000000000002000000000000000000000000000000000000000000000000000000000000000000000000000020000000000000000000000000100000000000000000000000000000000000040000000000000000000000000000008000000900000000000000000000000000000800000000000000000000000000000000000000000000000000000000000000000000000000000000010000000000000000000000200000000004000000000000000000008000000000000000000000000000000000000000000000000000000000000000000000000000000000000000000000000000000000000000000001000000000000000040000000000000",
      "type": "0x2",
      "transactionHash": "0x61cb786c36d323c4289d724ed6754f321c5c42fe859ff2fca09abf74c07b5fc6",
      "transactionIndex": "0x0",
      "blockHash": "0x378fc32264cdcdb2643e4c246573eb8e07f81b78b000dd11f72dacbcffeb977c",
      "blockNumber": "0x1df41a2",
      "gasUsed": "0x4f574",
      "effectiveGasPrice": "0x1",
      "blobGasPrice": "0x1",
      "from": "0x3c44cdddb6a900fa2b585dd299e03d12fa4293bc",
      "to": "0xb99cc53e8db7018f557606c2a5b066527bf96b26",
      "contractAddress": null
    }
  ],
  "libraries": [],
  "pending": [],
  "returns": {},
  "timestamp": 1765167298656,
  "chain": 31338,
  "commit": "a90a2e0"
}